:100B9D00482E54203030303A30303020522E5420F0
:100BAD000031323A303020205345432D3120203250
:020BBD00340002
:0F0B42008F807F057E00120B51D2A57F057E00AC
:100B5100D3EF9400EE940040167D6EEDD3940074B3
:0F0B610080948040031D80F3EF1F70E41E80E13D
:010B70002262
:080BED00C2A7120B42C2A522AF
:100B7100750B187FCE120BEDE50B75F00A120BBF4A
:100B81002430FF120B95E50B75F00A120BBFAFF085
:040B9100EF2430FF1E
:080B9500D2A7120B42C2A522F7
:1009A500E4F50CF50DF509758910F58B758D4CD2AF
:1009B500AFD2ABC28ED2A8D2AAD288D28AC2A5C2E1
:1009C500A0F508750A0C750E01750B187F38120B0A
:1009D500ED7F0C120BED7F06120BED7F01120BED77
:1009E5007F80120BEDE4FCECC3941074809480506E
:1009F5000CEC900B9D93FF120B950C80EA7FC012B7
:100A05000BEDE4FCECC3941074809480500CEC90D6
:0A0A15000BAE93FF120B950C80EA64
:010A1F0022B4
:060B0100050CAD0C7F04A1
:100B0700AC05AB07EB2480FF120BEDEC75F06484AA
:100B17002430FF120B95EC75F06484E5F075F00A4C
:100B2700842430FF120B95EC75F00A84E5F024302D
:0B0B3700FF120B95EB2480FF020BED7A
:100914002093113093FD120B013093030209A4308C
:1009240093FD80752092103092FD050C120B01206E
:10093400926E3092FD80622095173095FD740325E8
:100944000CF50CFD7F04120B072095543095FD80A7
:10095400482091143091FD050DAD0D7F08120B0751
:1009640020913D3091FD80312090163090FD050D91
:10097400050DAD0D7F08120B072090243090FD80EB
:100984001820961C3096FD7403250DF50DFD7F0887
:10099400120B0720960A3096FD7F147E00120B512D
:0109A4002230
:10080000AF09EF3395E0FEC3EF9414EE648094805B
:1008100050030209131508150B120B747FCE120B2F
:10082000EDAF0BEF3395E04F700ED2A07FB87E0B8B
:10083000120B51C2A0750B18AF08EF3395E04F6053
:10084000030208C9AF0AEF3395E04F707CC28E7F78
:10085000C4120BED7F30120B95050E120B717FCE7B
:10086000120BEDAF0EEF3395E0FEC3EF9405EE648F
:1008700080948050217C50ECD3940074809480400C
:1008800015D2A07FF47E01120B51C2A07FF47E012D
:10089000120B511C80E1AF0EEF3395E0FEEF6405C3
:1008A0004E700CD2A07F107E27120B51E4F50EC2C1
:1008B000A07FCB120BEDE50E2430FF120B957FCB02
:1008C000120BEDE4F508750A0CAF08EF3395E0FE66
:1008D000BEFF08BFFF0575083B150A7FC0120BED70
:1008E000E50A75F00A120BBF2430FF120B95E50ADA
:1008F000120B897FC3120BEDE50875F00A120BBFCE
:100900002430FF120B95E508120B897FC3120BED03
:03091000E4F50902
:0109130022C1
:080BF5001209A512091480FB8E
:03000300020A727C
:100A7200C0E0C0F0C083C082C0D075D000C000C04A
:100A820001C002C003C004C005C006C007B28E3058
:100A92008E04C2BB8002D2BB20B20630B2FD120865
:100AA20000D007D006D005D004D003D002D001D0A8
:0C0AB20000D0D0D082D083D0F0D0E03251
:03001300020A20BE
:100A2000C0E0C0F0C083C082C0D075D000C000C09C
:100A300001C002C003C004C005C006C007120B718C
:100A40007FCE120BED20B30F20B30512080080F803
:100A50007F147E00120B51D007D006D005D004D0F1
:100A600003D002D001D000D0D0D082D083D0F0D03B
:020A7000E03272
:03001B00020ABE18
:100ABE00C0E0C0F0C083C082C0D075D000C000C0FE
:100ACE0001C002C003C004C005C006C007050975F9
:100ADE008B00758D4C120800D007D006D005D004BF
:100AEE00D003D002D001D000D0D0D082D083D0F0AD
:030AFE00D0E03213
:03000000020BE10F
:0C0BE100787FE4F6D8FD75810E020BF55C
:100BBF00C2D530F707B2D563F0FF05F030E70CB2BE
:100BCF00D5F4048463F0FF05F080018430D502F47E
:020BDF000422EE
:00000001FF
