:1009370048656C6C6F20576F726C642100303132E0
:0809470033343536373839002E
:1008C70012094F7BFF7A097937E4FDFF1208007B95
:0E08D700FF7A0979447D01E4FF12080080FEDB
:10090300C2A7C2A6C2A58F807F017E001208E5D2CE
:0B091300A57F017E001208E5C2A522AE
:0A08A200AB09AA0AA90B12091EFFF8
:1008AC00D2A7C2A6C2A58F807F017E001208E5D216
:0B08BC00A57F017E001208E5C2A52206
:10094F007F381209037F0C1209037F061209037FF8
:04095F000102090385
:05097A007F01020903EA
:080800008F088B098A0A890B9D
:10080800E4F50CEDFF7E00D39401748094804003DE
:100818000208A1E508940F74809480507CC3EF947B
:1008280001748094805039AB09AA0AA90B12091ED9
:100838006067C374109508FFE50CC39FE50C50066C
:10084800248025088004250824B0FF120903120813
:10085800A27401250BF50BE4350AF50A050C80C7CF
:10086800AB09AA0AA90B12091E602EC374109508B9
:10087800FFE50CC39FE50C500624C025088004251D
:10088800082470FF1209031208A27401250BF50B46
:09089800E4350AF50A050C80C7DD
:0108A1002234
:0B096F00EF1FAC0670011E4C70F6225A
:1008E500D3EF9400EE940040147D6E7C00ED1D70F6
:0D08F500011CED4C70F7EF1F70E61E80E354
:0109020022D2
:030000000209638F
:0C096300787FE4F6D8FD75810C0208C70F
:10091E00BB010689828A83E0225002E722BBFE02D7
:09092E00E32289828A83E493220A
:00000001FF
